:100000000C9488000C94B0000C94B0000C94B000D8
:100010000C94B0000C94B0000C94B0000C94B000A0
:100020000C94B0000C94B0000C94B0000C94E90651
:100030000C94B0000C94B0000C94B0000C94B00080
:100040000C94300E0C94B0000C9489050C9463054C
:100050000C94B0000C94B0000C94B0000C94B00060
:100060000C94BB050C94B00080038A0392039A039E
:10007000F2031C0451044E414E494E495459494E15
:1000800046CDCCCC3D0AD7233C17B7D13877CC2B03
:10009000329595E6241FB14F0A000020410000C8A8
:1000A0004200401C4620BCBE4CCA1B0E5AAEC59D29
:1000B0007400000000230026002900000000080052
:1000C000020100000304070000000000000000001F
:1000D000000000240027002A00010204081020402C
:1000E0008001020408102001020408102004040406
:1000F00004040404040202020202020303030303D1
:100100000300000000250028002B000094108E1032
:1001100011241FBECFEFD8E0DEBFCDBF14E0A0E0BA
:10012000B1E0E8E9FFE202C005900D92A235B10707
:10013000D9F726E0A2E5B4E001C01D92A331B207D1
:10014000E1F710E0C7E8D0E004C02197FE010E946B
:10015000BD15C638D107C9F70E947A0E0C94BF1797
:100160000C940000089508950895CF92DF92EF92C5
:10017000FF920F931F93CF93DF936C017A018B0152
:10018000C0E0D0E0CE15DF0581F0D8016D918D0182
:10019000D601ED91FC910190F081E02DC601099509
:1001A000892B11F02196EECF7E01C701DF91CF910F
:1001B0001F910F91FF90EF90DF90CF900895FC0179
:1001C000538D448D252F30E0842F90E0821B930BBC
:1001D000541710F0CF96089501970895FC01918D62
:1001E000828D981761F0828DDF01A80FB11D5D9699
:1001F0008C91928D9F5F9F73928F90E008958FEF07
:100200009FEF0895FC01918D828D981731F0828DBA
:10021000E80FF11D858D90E008958FEF9FEF089511
:10022000FC01918D228D892F90E0805C9F4F821B75
:1002300091098F739927089580E295E00E9410013B
:1002400021E0892B09F420E0822F0895FC01848DA0
:10025000DF01A80FB11DA35ABF4F2C91848D90E0F0
:1002600001968F739927848FA689B7892C93A089CB
:10027000B1898C91837080648C93938D848D981355
:1002800006C00288F389E02D80818F7D80830895E8
:10029000EF92FF920F931F93CF93DF93EC0181E0D6
:1002A000888F9B8D8C8D981305C0E889F989808192
:1002B00085FD26C0F62E0B8D10E00F5F1F4F0F73CC
:1002C0001127E02E8C8DE8120CC00FB607FCFACF78
:1002D000E889F989808185FFF5CFCE010E9426014A
:1002E000F1CF8B8DFE01E80FF11DE35AFF4FF08235
:1002F0009FB7F8940B8FEA89FB89808180620AC0DE
:100300009FB7F894EE89FF896083E889F989808135
:100310008370806480839FBF81E090E0DF91CF9104
:100320001F910F91FF90EF900895CF93DF93EC0111
:10033000888D8823C9F0EA89FB89808185FD05C005
:10034000A889B9898C9186FD0FC00FB607FCF5CF3F
:10035000808185FFF2CFA889B9898C9185FFEDCF87
:10036000CE010E942601E7CFDF91CF91089585ED60
:100370008093BC008091BC0084FDFCCF1092FD04F2
:10038000089540917304262F30E0240F311D21324F
:100390003105DCF42091FD042430C9F4FC0180E037
:1003A00090E0861758F4309173042191DC01AD5A26
:1003B000BB4FA30FB11D2C930196F3CF8091730413
:1003C000680F6093730480E0089581E0089582E0EF
:1003D00008950895E091FF048091FE04E81730F439
:1003E000F0E0E050FB4F808190E008958FEF9FEFA9
:1003F00008959091FF048091FE04981750F4E92F1E
:10040000F0E0E050FB4F208130E09F5F9093FF04CD
:1004100002C02FEF3FEFC90108958091FE0490E0E4
:100420002091FF04821B91090895CF92DF92EF92F1
:10043000FF920F931F93CF93DF937C01CB018A012F
:100440002091B304222389F0EB016B01C40ED51E69
:10045000CC15DD0569F06991D701ED91FC91019012
:10046000F081E02DC7010995F3CF642F0E94C101EF
:10047000C801DF91CF911F910F91FF90EF90DF9016
:10048000CF900895CF93DF931F92CDB7DEB76983E6
:100490002091B3042223D1F02091D604203240F0E1
:1004A00021E030E0FC013383228380E090E015C03E
:1004B0008091B404E82FF0E0EB54FB4F99819083D6
:1004C0008F5F8093B4048093D60405C061E0CE01B1
:1004D00001960E94C10181E090E00F90DF91CF91E1
:1004E000089580E090E008950E94AA170F931F934B
:1004F000CF93DF93EC0188819981009729F02A81BD
:100500003B812617370788F48B016F5F7F4F0E946E
:10051000E416009761F0998388831B830A832C81FA
:100520003D81232B11F4FC01108281E001C080E0A9
:10053000DF91CF911F910F910895EF92FF920F934A
:100540001F93CF93DF93EC017B018A01BA010E94D4
:1005500076022881398181110DC02115310519F0EC
:10056000C9010E945B16198218821D821C821B829F
:100570001A8206C01D830C83B701C9010E94B817F7
:10058000CE01DF91CF911F910F91FF90EF900895D1
:10059000EF92FF920F931F93CF93DF93CDB7DEB708
:1005A00062970FB6F894DEBF0FBECDBFCE0107969F
:1005B0000E949708CE010D960E94970880E295E070
:1005C0000E941001892B39F180E295E00E94EE0033
:1005D00089831A820091F2051091F3050F5F1F4F76
:1005E000B8018EEE95E00E947602882339F32091BF
:1005F000EE053091EF058091F2059091F305BE0173
:100600006F5F7F4F820F931F0E94B8171093F305FF
:100610000093F205D3CF8091F2059091F3050397F3
:1006200008F416C241E050E060E070E0CE010196AF
:100630000E94AC0CBE016F5F7F4FCE0107960E94F7
:10064000730C89819A810E945B168F81988500972F
:1006500019F00E94261103C060E070E0CB017B011D
:1006600042E050E061E070E0CE0101960E94AC0CE7
:10067000BE016F5F7F4FCE010D960E94730C898182
:100680009A810E945B168D859E85009719F00E94C5
:10069000261103C060E070E0CB018B014091F205B0
:1006A0005091F30543305105F8F062E070E0CE015F
:1006B00001960E94AC0CBE016F5F7F4FCE010D967C
:1006C0000E94730C89819A810E945B168D859E859C
:1006D000009719F00E94221103C060E070E0CB0186
:1006E0000E947115CB0102C08AE590E027E0E21676
:1006F000F10408F04AC1F701EC5CFF4F0C94BD1502
:100700000130110511F461E001C060E088E00E9451
:10071000320DA2C10130110511F461E001C060E0A9
:1007200089E0F5CF0130110511F461E001C060E00E
:1007300085E0EDCF0130110521F481E080939A042A
:100740008BC10115110519F410929A0485C102306C
:10075000110579F4BC01990F880B990B0E94D812EE
:1007600060930701709308018093090190930A0137
:1007700073C10330110579F4BC01990F880B990BF3
:100780000E94D812609300017093010180930201CE
:100790009093030161C10430110509F05DC185E347
:1007A00091E00E943F0C60910001709101018091E5
:1007B00002019091030142E00E946D0B81E491E0FF
:1007C0000E943F0C6091070170910801809109011E
:1007D00090910A0142E00E946D0B87E591E00E9432
:1007E000E70A3AC101301105A1F411E01093AE04FB
:1007F00061E089E00E94320D0E949D0D8AE590E043
:10080000909305018093040110939D048AE591E083
:1008100021C18FE691E00E945F0B60E089E00E94B9
:10082000320D60E088E00E94320D60E085E00E94B9
:10083000320D1092AE0410C101151105D1F0013036
:10084000110561F10230110519F483E090E009C04F
:100850000330110519F484EB90E003C00430110556
:1008600019F40E94630AF8C00530110581F4109252
:100870000601E091F405F0E0CF01880F991FE80F21
:10088000F91FE753FA4F80818F7B8083E5C00630E4
:10089000110509F0E1C081E0809306010E949D0DE1
:1008A000DBC08091AE04811128C00E94A40860932F
:1008B000AA047093AB048093AC049093AD040E949F
:1008C000C9086093A6047093A7048093A80490932A
:1008D000A9040E9497096093A2047093A3048093D3
:1008E000A4049093A5040E94FD0960939E04709354
:1008F0009F048093A0049093A1046091A20470913E
:10090000A3048091A4049091A50442E00E946D0B81
:1009100084E494E00E943F0C60919E0470919F04D7
:100920008091A0049091A10442E00E946D0B84E4A8
:1009300094E00E943F0C6091AA047091AB048091F6
:10094000AC049091AD0442E00E946D0B84E494E00D
:100950000E943F0C6091A6047091A7048091A804A6
:100960009091A90442E00E946D0B84E494E00E94FF
:100970003F0C8091AE04882319F081E090E002C022
:1009800080E090E00E94410C67C085E891E00E9401
:100990005F0B89E991E00E945F0B8EEB91E00E9472
:1009A0005F0B82ED91E00E945F0B86EE91E00E946A
:1009B0005F0B8BEF91E00E945F0B8EE092E00E9454
:1009C0005F0B82E292E00E945F0B80E492E00E9463
:1009D0005F0B8FE592E00E945F0B80E792E00E9440
:1009E0005F0B82E892E00E945F0B85EA92E00E9432
:1009F0005F0B8FEB92E00E945F0B81EE92E00E9412
:100A00005F0B86EF92E00E945F0B8CE093E00E9408
:100A10005F0B86E293E00E945F0B80E493E00E940C
:100A20005F0B80E693E00E945F0B82E893E00E94F8
:100A30005F0B83EA93E00E945F0B89EB93E00E94D7
:100A40005F0B8EEC93E00E945F0B89E991E002C09E
:100A50008BEE93E00E945F0B80919A04882381F0D3
:100A60008FEF93E00E945F0B4091F2055091F305E8
:100A70006091EE057091EF0580E295E00E94B5006F
:100A800040E050E069E571E08EEE95E00E949D0245
:100A90008D859E850E945B168F8198850E945B16CE
:100AA00062960FB6F894DEBF0FBECDBFDF91CF9137
:100AB0001F910F91FF90EF9008950E941C018111EA
:100AC0000C94C80208951F920F920FB60F92112432
:100AD0002F933F934F935F936F937F938F939F9346
:100AE000AF93BF93EF93FF9380E295E00E942601BE
:100AF000FF91EF91BF91AF919F918F917F916F91F6
:100B00005F914F913F912F910F900FBE0F901F90CB
:100B100018951F920F920FB60F9211242F938F9357
:100B20009F93EF93FF93E0913005F0913105808121
:100B3000E0913605F091370582FD12C090818091D9
:100B400039058F5F8F7320913A05821751F0E0913C
:100B50003905F0E0E05EFA4F958F8093390501C0CA
:100B60008081FF91EF919F918F912F910F900FBEF8
:100B70000F901F9018951F920F920FB60F9211248D
:100B80002F933F934F935F936F937F938F939F9395
:100B9000AF93BF93EF93FF938091B900887F803626
:100BA00009F49CC068F5883209F45BC090F4803188
:100BB00009F454C038F4882309F4F6C0883009F4E5
:100BC0004DC0F6C0883109F44CC0803209F45DC0D4
:100BD000EFC0803409F468C048F4803309F455C08C
:100BE000883309F0E5C08093FB04D8C0803509F450
:100BF0004FC0883509F45DC0883409F0D9C0D6C02B
:100C0000883909F4C7C0A8F4883709F467C038F4F4
:100C1000883609F463C0803709F460C0C9C08838D9
:100C200009F4B8C0803909F45FC0803809F0C0C049
:100C30005BC0803B09F486C038F4803A09F466C092
:100C4000883A09F47FC0B4C0803C09F4A7C0883C4E
:100C500009F4A4C0883B09F48AC0AAC08091F804B2
:100C600010C09091FA048091F904981770F5E09102
:100C7000FA0481E08E0F8093FA04F0E0E952FB4F12
:100C800080818093BB0085EC86C08093FB048EC07E
:100C9000E091FA0481E08E0F8093FA048091BB000A
:100CA000F0E0E952FB4F80839091FA048091F904BF
:100CB0006EC0E091FA0481E08E0F8093FA04809177
:100CC000BB00F0E0E952FB4F80838091FC0481116E
:100CD0006DC081E08093F70484EA61C083E0809373
:100CE000FD0410929504CFCF80919504803208F0D6
:100CF00051C0E091950481E08E0F8093950480911E
:100D0000BB00F0E0EB58FB4F8083BDCF85EC8093B8
:100D1000BC001092FD0480919504803230F4E09183
:100D20009504F0E0EB58FB4F10826091950470E061
:100D3000E0919604F091970485E794E0099510926C
:100D4000950436C084E08093FD04109274041092E0
:100D50007304E0919804F0919904099580917304CB
:100D6000811105C081E08093730410925304E091D7
:100D7000740481E08E0F80937404F0E0ED5AFB4F11
:100D800080818093BB0090917404809173049817C4
:100D900008F479CF85E88093BC000AC085EC809385
:100DA000BC001092FD0404C01092FB040E94B70125
:100DB000FF91EF91BF91AF919F918F917F916F9133
:100DC0005F914F913F912F910F900FBE0F901F9009
:100DD00018951F920F920FB60F9211242F933F93E5
:100DE0004F935F936F937F938F939F93AF93BF9333
:100DF000EF93FF938091520487FF05C01092850006
:100E0000109284001BC020915204022E000C330B60
:100E10008091ED0590E02817390784F48091520401
:100E2000082E000C990BFC01EE0FFF1F8E0F9F1F69
:100E3000FC01E753FA4F808186FD15C08091520472
:100E40008F5F8093520420915204022E000C330BCA
:100E50008091ED0590E028173907C4F48091520481
:100E60008C3064F113C080915204082E000C990B51
:100E7000FC01EE0FFF1F8E0F9F1FFC01E753FA4F7F
:100E8000808160E08F730E94320DD8CF8091840002
:100E900090918500049680349C4918F480E49CE984
:100EA00005C08091840090918500049690938900FC
:100EB000809388008FEF809352043BC02091840080
:100EC0003091850080915204082E000C990BFC0192
:100ED000EE0FFF1F8E0F9F1FFC01E753FA4F81811A
:100EE0009281820F931F9093890080938800809154
:100EF0005204082E000C990BFC01EE0FFF1F8E0F01
:100F00009F1FFC01E753FA4F808186FF12C080913A
:100F10005204082E000C990BFC01EE0FFF1F8E0FE0
:100F20009F1FFC01E753FA4F808161E08F730E949D
:100F3000320DFF91EF91BF91AF919F918F917F9172
:100F40006F915F914F913F912F910F900FBE0F9036
:100F50001F9018951EBC00000DB407FEFDCF8EB586
:100F60000895CF92DF92EF92FF920F931F93CF934A
:100F7000DF938091FF0581114EC061E080910206F0
:100F80000E94610D61E0809102060E94320D809105
:100F900000068F3F09F034C0CFB7F8948091030664
:100FA000811127C0E7EFF0E08491E3EEF0E0949147
:100FB000E82FF0E0EE0FFF1FE153FF4FA591B49132
:100FC000EC91E92321F461E08AE00E94320D61E0B6
:100FD0008AE00E94610D8CB580618CBD8CB5806407
:100FE0008CBD61E08DE00E94610D61E08BE00E94AC
:100FF000610D809103068F5F80930306CFBF08C009
:1010000061E00E94610D60E0809101060E94610D27
:1010100081E08093FF0560E0809102060E94320D1E
:1010200061E070E080E090E00E94F60D80910006A3
:101030008F3FF9F480E58CBD1DBC0E94AA07C82E25
:10104000D12CE12CF12CFE2CED2CDC2CCC240E949C
:10105000AA07C82AFE2CED2CDC2CCC240E94AA075F
:10106000C82AFE2CED2CDC2CCC240E94AA07C82A0E
:101070004EC060E00E94320D61E070E080E090E0E0
:101080000E94F60DC0E2D0E0C12CD12C760160E0C8
:10109000809100060E94320D61E070E080E090E0F7
:1010A0000E94F60DCC0CDD1CEE1CFF1C20910106ED
:1010B00030E0F901E554FF4F8491F901E752FF4F09
:1010C0001491F901E351FF4F0491002371F0811154
:1010D0000E94090DE02FF0E0EE0FFF1FEF54FF4FCD
:1010E000A591B491EC911E2379F461E08091000602
:1010F0000E94320D61E070E080E090E00E94F60D09
:10110000219709F0C4CF03C06894C0F8EECF61E026
:10111000809102060E94320DC701B601DF91CF9186
:101120001F910F91FF90EF90DF90CF900895FC01F9
:1011300011821082138212821582148240E050E0E4
:1011400069E571E00C949D020F931F930E94B10713
:101150008B019C010770112722273327012B022BBB
:10116000032B81F422E195958795779567952A95CC
:10117000D1F70E94D81220E030E040E85EE30E9400
:10118000371304C060E070E080EC9FE71F910F917F
:1011900008950E94B107DC01CB0124E0B695A79524
:1011A000979587952A95D1F793FD08C0BC01CD018D
:1011B0007770882799270E94D61208C0BC01786FE3
:1011C000072E000C880B990B0E94D81220E030E00B
:1011D00040E85DE30E94371308959091FD0491115A
:1011E000FCCF982F813208F090E281E08093FD04DB
:1011F0008093FC042FEF2093FB041092FA04290F34
:101200002093F9048093F8048091F8048068809317
:10121000F8048091F704813061F41092F704809112
:10122000F8048093BB008091BC0083FDF8CF85EC6F
:1012300001C085EE8093BC008091FD048130E1F314
:101240008091FA04891710F49091FA04E7EDF4E024
:10125000A0E0B5E080E0891721F021912D938F5F08
:10126000FACF1092FF048093FE0408953091D604C3
:10127000313208F04BC08091FD048111FCCF909178
:10128000D50422E02093FD0421E02093FC042FEFFD
:101290002093FB041092FA043093F904E5EBF4E098
:1012A000A7EDB4E020E0321721F041914D932F5F7C
:1012B000FACF1092F8042091F804990F922B909392
:1012C000F8049091F704913061F41092F704909132
:1012D000F8049093BB009091BC0093FDF8CF95EC7F
:1012E00001C095EE9093BC009091FD049230E1F323
:1012F0009091FB049F3F79F08091FB04803241F094
:101300008091FB04803331F084E005C081E003C0AC
:1013100082E001C083E01092B4041092D6041092CF
:10132000B3040895682F8DEB95E00C9442020F935F
:101330001F93CF93DF9381E08093B30480E4809385
:10134000D5041092B4041092D60483EE90E00E946B
:1013500092090E94360962E370E080E090E00E940A
:10136000F60D83E090E00E94ED088330C9F58DEB27
:1013700095E00E94F901D82F80E0C82F8DEB95E011
:101380000E94F9018C7F9927C82BD92B8DEB95E012
:101390000E94F901BE0180E090E00E94D61222E591
:1013A00038EB4FE253E40E94371320E030E040E88E
:1013B00057E30E94371326E636E64BE352E40E94D9
:1013C00092148B019C010093FB051093FC05209364
:1013D000FD053093FE05562F472F382F292F04C0C7
:1013E00050E040E030E020E0652F742F832F922FF3
:1013F000DF91CF911F910F9108950F931F93CF937A
:10140000DF9381E08093B30480E48093D50410924D
:10141000B4041092D60485EE90E00E9492090E94D6
:10142000360962E370E080E090E00E94F60D83E010
:1014300090E00E94ED088330C9F58DEB95E00E94A5
:10144000F901D82F80E0C82F8DEB95E00E94F901BB
:101450008C7F9927C82BD92B8DEB95E00E94F90141
:10146000BE0180E090E00E94D61220E030E04AEF1A
:1014700052E40E94371320E030E040E857E30E9436
:10148000371320E030E040EC50E40E9492148B01CE
:101490009C010093F7051093F8052093F90530930C
:1014A000FA05562F472F382F292F04C050E040E06F
:1014B00030E020E0652F742F832F922FDF91CF91A2
:1014C0001F910F910895CF92DF92EF92FF92DC016E
:1014D000A03282E0B8070CF03EC0B7FD06C0A53BC5
:1014E000B1052CF0A4EBB0E002C0A0E0B0E0809128
:1014F000F50528E830E06901C81AD10887FDD394C2
:10150000CC0CDD1CCC0CDD1C0D2C000CEE08FF08F7
:101510008091F60528E532E0281B310987FD3395D7
:10152000220F331F220F331FA901330F660B770BD6
:101530009A01AB012C193D094E095F090E94221442
:1015400024EB30E040E050E00E94F813C20ED31EBE
:10155000E41EF51ED6019091F4059C3098F580911B
:10156000F50548E850E0481B510987FD5395440FA5
:10157000551F440F551FA417B5078CF08091F60531
:1015800028E532E0281B310987FD3395220F331FF0
:10159000220F331FAD012A173B070CF4A90142505B
:1015A0005109440F551F2FB7F894892F90E0FC0183
:1015B000EE0FFF1F8E0F9F1FFC01E753FA4F528360
:1015C00041832FBFFF90EF90DF90CF900895009759
:1015D00069F0FC0101900020E9F73197AF01481B49
:1015E000590BBC0180E295E00C94B50080E090E0DE
:1015F00008953FB7F8948091090690910A06A0914A
:101600000B06B0910C0626B5A89B05C02F3F19F01C
:101610000196A11DB11D3FBFBA2FA92F982F882772
:10162000820F911DA11DB11DBC01CD0142E0660FCD
:10163000771F881F991F4A95D1F708958F929F921F
:10164000AF92BF920F931F93CF93DF93CDB7DEB7C7
:10165000A1970FB6F894DEBF0FBECDBF19A24230DE
:1016600008F44AE08E010F5D1F4F842E912CA12CAF
:10167000B12CA50194010E946114E62FB901CA01A1
:1016800001501109EA3014F4E05D01C0E95CD801B1
:10169000EC93232B242B252B61F7C8010E94E70A2A
:1016A000A1960FB6F894DEBF0FBECDBFDF91CF91EC
:1016B0001F910F91BF90AF909F908F900895CF93FF
:1016C000DF930E94E70AEC0187E591E00E94E70AB8
:1016D0008C0F9D1FDF91CF9108958F929F92AF92B3
:1016E000BF92CF92DF92EF92FF920F931F93CF930F
:1016F000DF936B017C01142F9B01AC010E94AC15A0
:10170000882319F086E494E027C046015701E89445
:10171000B7F82FEF3FEF4FE75FE7C501B4010E9435
:10172000AC1581110DC02FEF3FEF4FE75FE7C5010B
:10173000B4010E94D11218161CF48AE494E00CC083
:101740002FEF3FEF4FE75FE4C701B6010E94A715F7
:10175000181684F48EE494E0DF91CF911F910F91DD
:10176000FF90EF90DF90CF90BF90AF909F908F90C1
:101770000C94E70A2FEF3FEF4FE75FECC701B6018C
:101780000E94D11287FDE6CF20E030E0A901C70119
:10179000B6010E94D11287FF0BC06DE280E295E096
:1017A0000E944801EC01F7FAF094F7F8F09402C0B7
:1017B000C0E0D0E000E060E070E080E09FE3101760
:1017C00041F020E030E040E251E40E94FF140F5F5E
:1017D000F6CFA70196010E9493146B017C010E9431
:1017E00078154B015C014AE00E941E0BC80FD91FFF
:1017F0001123B9F1C501B4010E94D6129B01AC01BD
:10180000C701B6010E9492146B017C016EE280E276
:1018100095E00E944801C80FD91F20E030E040E267
:1018200051E4C701B6010E9437134B015C010E94CD
:1018300078156B01E12CF12C4AE0C701B6010E943A
:101840001E0BC80FD91FC701B6010E94D6129B01FB
:10185000AC01C501B4010E9492146B017C011150CE
:10186000E1F6CE01DF91CF911F910F91FF90EF90A4
:10187000DF90CF90BF90AF909F908F9008950C9481
:10188000E70ACF92DF92EF92FF92CF93DF936C0142
:10189000990FEE08FF08F7FE13C06DE280E295E0B5
:1018A0000E944801EC0166277727CB016C197D095E
:1018B0008E099F094AE00E941E0BC80FD91F06C05F
:1018C0004AE0C701B6010E941E0BEC0187E591E0DA
:1018D0000E94E70A8C0F9D1FDF91CF91FF90EF9040
:1018E000DF90CF9008950F931F93CF93DF938C01D8
:1018F000EB01FC01808191810097B1F068817981D1
:101900006115710579F0428153812C813D81421727
:10191000530740F00E94B8178C819D81F801958390
:10192000848313C00E945B1688819981F80191839A
:1019300080838A819B81938382838C819D8195831F
:101940008483198218821B821A821D821C82DF9175
:10195000CF911F910F910895CF92DF92EF92FF9256
:101960000F931F93CF93DF936C01EB017A0146171E
:10197000570720F48D2FEA01E62EF82EC6010E94AB
:1019800097080091F2051091F305C017D107B8F53B
:10199000E016F10608F48701E091EE05F091EF05FD
:1019A000E00FF11FF08010826091EE057091EF055D
:1019B0006C0F7D1F6115710561F0FB010190002026
:1019C000E9F73197AF01461B570BC6010E949D02F4
:1019D0000EC0F60180819181009711F00E945B1684
:1019E000F601118210821582148213821282809174
:1019F000EE059091EF05FC01E00FF11FF082C601AA
:101A0000DF91CF911F910F91FF90EF90DF90CF90DA
:101A10000895833081F028F4813099F08230A1F06C
:101A200008958730A9F08830B9F08430D1F48091DE
:101A300080008F7D03C0809180008F77809380002D
:101A4000089584B58F7702C084B58F7D84BD0895D5
:101A50008091B0008F7703C08091B0008F7D80931C
:101A6000B00008951F93CF93DF93282F30E0F90142
:101A7000E554FF4F8491F901E752FF4FD491F901EA
:101A8000E351FF4FC491CC23C1F0162F81110E9466
:101A9000090DEC2FF0E0EE0FFF1FEF5FFE4FA59159
:101AA000B4919FB7F894111104C08C91D095D823AC
:101AB00002C0EC91DE2BDC939FBFDF91CF911F9191
:101AC0000895CF93DF9390E0FC01E752FF4F2491FC
:101AD000FC01E351FF4F8491882361F190E0880F6E
:101AE000991FFC01E153FF4FC591D491FC01EF5FB9
:101AF000FE4FA591B491611109C09FB7F8948881F8
:101B0000209582238883EC912E230BC0623061F4F0
:101B10009FB7F8948881322F309583238883EC9186
:101B20002E2B2C939FBF06C08FB7F894E8812E2BE5
:101B300028838FBFDF91CF9108958091F4058C3079
:101B400008F051C061E086E00E94610D8091F405CB
:101B5000E82FF0E09F01220F331FE20FF31FE7533E
:101B6000FA4F9081907C966090831092F5051092C8
:101B7000F6056CE00E94B1159CE0899FB00111242C
:101B800040E050E09B01240F351FF901EE0FFF1FCD
:101B90002E0F3F1FF901E753FA4F908196FD16C0B3
:101BA0004F5F5F4F4C30510569F781110FC01092A4
:101BB000800082E080938100109285001092840062
:101BC000B19A80916F00826080936F00E091F4057C
:101BD000F0E0CF01880F991FE80FF91FE753FA4F84
:101BE0008081806480838091F40508958F929F9214
:101BF000AF92BF92CF92DF92EF92FF926B017C0186
:101C00000E94F90A4B015C01C114D104E104F10402
:101C1000F1F00E94F90ADC01CB0188199909AA099F
:101C2000BB09883E9340A105B10570F321E0C21ABB
:101C3000D108E108F10888EE880E83E0981EA11C07
:101C4000B11CC114D104E104F10419F7DDCFFF90F8
:101C5000EF90DF90CF90BF90AF909F908F900895BE
:101C60001F920F920FB60F9211242F933F938F93D1
:101C70009F93AF93BF938091050690910606A09124
:101C80000706B09108063091040623E0230F2D3794
:101C900020F40196A11DB11D05C026E8230F029670
:101CA000A11DB11D2093040680930506909306069E
:101CB000A0930706B09308068091090690910A0642
:101CC000A0910B06B0910C060196A11DB11D809349
:101CD000090690930A06A0930B06B0930C06BF91D9
:101CE000AF919F918F913F912F910F900FBE0F90C9
:101CF0001F901895CF93DF9300D000D0CDB7DEB7FB
:101D0000789484B5826084BD84B5816084BD85B5D6
:101D1000826085BD85B5816085BD80916E008160E2
:101D200080936E0010928100809181008260809388
:101D3000810080918100816080938100809180008A
:101D40008160809380008091B10084608093B100B5
:101D50008091B00081608093B00080917A008460AF
:101D600080937A0080917A00826080937A008091DB
:101D70007A00816080937A0080917A0080688093F5
:101D80007A001092C10061E085E00E94610D61E07F
:101D900088E00E94610D61E089E00E94610DE091A0
:101DA0003005F091310582E08083E0912C05F091BF
:101DB0002D051082E0912E05F0912F0580E18083A2
:101DC00010923805E0913405F091350586E0808366
:101DD000E0913205F0913305808180618083E0914C
:101DE0003205F0913305808188608083E09132056F
:101DF000F0913305808180688083E0913205F09115
:101E0000330580818F7D80836AE070E08EEE95E0FF
:101E10000E9476021092FF041092FE041092B40405
:101E20001092D6041092FD0481E08093FC0410927D
:101E3000F70461E082E10E94320D61E083E10E94DB
:101E4000320D8091B9008E7F8093B9008091B900E6
:101E50008D7F8093B90088E48093B80085E48093F7
:101E6000BC0082EB90E0909399048093980483EBFC
:101E700090E0909397048093960491E09093B3043C
:101E8000A0E4A093D5041092B4041092D6048EEF6F
:101E900090E00E9492090E9436096FE070E080E0B5
:101EA00090E00E94F60DB1E0B093B30480E480931B
:101EB000D5041092B4041092D60487EE90E00E94EC
:101EC00092090E94360981E090E00E94ED088DEBB6
:101ED00095E00E94F901029721F08BE094E00E94C6
:101EE0005F0B84EF91E0A0E0B0E08093AF049093AB
:101EF000B004A093B104B093B2046091AF047091A8
:101F0000B0048091B1049091B2040E94F60D8091CA
:101F1000AE04882309F4FFC00E94A4086B017C0171
:101F20006093AA047093AB048093AC049093AD04C7
:101F30000E94C9086093A6047093A7048093A80424
:101F40009093A9040E9497092B013C016093A2047D
:101F50007093A3048093A4049093A5040E94FD09A8
:101F600069837A838B839C8360939E0470939F0420
:101F70008093A0049093A1048090070190900801A1
:101F8000A0900901B0900A01A5019401C701B60112
:101F90000E94A71587FF08C0A5019401C301B201E3
:101FA0000E94A71587FD02C060E001C061E085E0E6
:101FB0000E94320D809106018823F1F120919D0449
:101FC00080919B0490919C042223B1F08C33910565
:101FD00098F010929C0410929B04809104019091BF
:101FE000050101969093050180930401843B9105BE
:101FF000C0F010929D0415C0CC97A8F010929C04DC
:1020000010929B0480910401909105010197909397
:102010000501809304018430910518F421E0209398
:102020009D040E94630A80919B0490919C040196F8
:1020300090939C0480939B042091000130910101B6
:10204000409102015091030169817A818B819C81C9
:102050000E94D112181684F420E030E040E85FE3DB
:10206000C501B4010E9493149B01AC01C701B601E4
:102070000E94A71587FD02C061E001C060E088E012
:102080000E94320D80919A04882309F444C089E2A9
:1020900094E00E945F0B6091A2047091A304809170
:1020A000A4049091A50442E00E946D0B83E494E0A7
:1020B0000E943F0C60919E0470919F048091A00447
:1020C0009091A10442E00E946D0B83E494E00E9491
:1020D0003F0C6091AA047091AB048091AC04909184
:1020E000AD0442E00E946D0B83E494E00E943F0C3B
:1020F0006091A6047091A7048091A8049091A9040E
:1021000042E00E946D0B87E591E00E94E70A87E5B7
:1021100091E00E94E70A0E945D05EFCE8091EE05F6
:102120009091EF050C945B161092230510922205F6
:1021300088EE93E0A0E0B0E080932405909325051D
:10214000A0932605B093270525E131E030932105C2
:102150002093200525EC30E030932D0520932C05AD
:1021600024EC30E030932F0520932E0520EC30E056
:10217000309331052093300521EC30E03093330566
:102180002093320522EC30E030933505209334055E
:1021900026EC30E030933705209336051092390550
:1021A00010923A0510923B0510923C051092C00522
:1021B0001092BF058093C1059093C205A093C305FB
:1021C000B093C40587E291E09093BE058093BD056E
:1021D00084E08093000682E08093020683E080938F
:1021E00001061092FF051092F7051092F805109263
:1021F000F9051092FA051092FB051092FC05109259
:10220000FD051092FE058091ED058C30A0F491E063
:10221000980F9093ED058093F40590E0FC01EE0F8C
:10222000FF1F8E0F9F1FFC01E753FA4F88EB9BE0C7
:102230009283818303C08FEF8093F4058EEE95E047
:102240000C949708662777270C9462111F93FC0162
:1022500099278827BC01E89411911032E9F31930CD
:1022600010F01E30C8F31B3251F01D3249F468944F
:1022700006C00E944D11610F711D811D911D1191AC
:1022800010531A30B0F33EF4909580957095619597
:102290007F4F8F4F9F4F1F910895592F482F372FF2
:1022A000262F660F771F881F991F660F771F881FBD
:1022B000991F620F731F841F951F660F771F881F5A
:1022C000991F0895A0E0B0E0E8E6F1E10C94301425
:1022D000EC016B016115710519F0FB01918380839D
:1022E0007E01FFEFEF1AFF0A0881802F90E00E9425
:1022F000B012892B11F0E701F3CF0D3239F47E01D2
:1023000082E0E80EF11C098111E008C00B3229F4CB
:102310007E0192E0E90EF11C098110E0E7012197AE
:1023200043E050E06EE770E0CE010E94B912892BC5
:10233000C1F4239645E050E069E770E0CE010E94C9
:10234000B912892B09F42596C114D10419F0F601AC
:10235000D183C0831111F6C060E070E080E89FE790
:10236000FAC043E050E066E770E0CE010E94B91287
:10237000892B59F4C114D10409F4E9C0F2E0EF0E3D
:10238000F11CF601F182E082E2C020E030E0A90118
:10239000C0E0D0E0F70180EDA82EA00E89E08A15FC
:1023A00030F1912F9260B92E812F887012FF04C0F6
:1023B000811124C0219622C081112197A5E0B0E0AF
:1023C0000E941714DC01CB01880F991FAA1FBB1FA5
:1023D0009C01AD012A0D311D411D511D283989E98E
:1023E0003807480789E1580748F0166006C09EEF95
:1023F000A9120AC013FD40C01860B12E8FEFE81A71
:10240000F80A00811B2DC6CF802F8F7D8534A1F562
:1024100080818D3211F4106106C08B3221F031962B
:1024200061E070E004C08181329662E070E0805328
:102430008A3018F0E61BF70B1FC060E070E06038D0
:102440009CE079075CF4DB01AA0FBB1FAA0FBB1F3E
:102450006A0F7B1F660F771F680F711D3196DF01B2
:1024600011978C9180538A3050F314FF03C07195FB
:1024700061957109C60FD71F11FF08C0C114D1049F
:1024800029F0CF010197F60191838083CA01B90138
:102490000E94D612212F2370233019F04B015C01CA
:1024A00006C04B015C01B7FAB094B7F8B09420E0D5
:1024B00030E0A901C501B4010E94D112882309F4BA
:1024C0003EC0D7FF06C0D195C195D10905E910E0FE
:1024D00002C00DEA10E06801F8E1CF1AD10890E2DD
:1024E000E92EF12CCE15DF0574F0F8012591359118
:1024F00045915491C501B4010E9437134B015C0111
:10250000CE19DF09EFCF04501109F594E7940C15AB
:102510001D0541F78A2D880F8B2D881F8F3F49F0AD
:1025200020E030E0A901C501B4010E94D11281115F
:1025300006C082E290E090930E0680930D06C501DE
:10254000B40109C060E070E080E89FEF04C060E083
:1025500070E080EC9FE7CDB7DEB7ECE00C944C1454
:1025600091110C94A413803219F089508550C8F74A
:102570000895FB01DC014150504088F08D91813479
:102580001CF08B350CF4805E659161341CF06B356A
:102590000CF4605E861B611171F3990B0895881B22
:1025A000FCCF0E94131308F481E00895E89409C059
:1025B00097FB3EF490958095709561957F4F8F4F76
:1025C0009F4F9923A9F0F92F96E9BB279395F6958C
:1025D000879577956795B795F111F8CFFAF4BB0F0A
:1025E00011F460FF1BC06F5F7F4F8F4F9F4F16C06E
:1025F000882311F096E911C0772321F09EE8872FF8
:10260000762F05C0662371F096E8862F70E060E0B3
:102610002AF09A95660F771F881FDAF7880F96952C
:10262000879597F90895990F0008550FAA0BE0E8D0
:10263000FEEF16161706E807F907C0F01216130684
:10264000E407F50798F0621B730B840B950B39F4C4
:102650000A2661F0232B242B252B21F408950A262A
:1026600009F4A140A6958FEF811D811D08950E9458
:102670004A130C94BE130E94B01338F00E94B71393
:1026800020F0952311F00C94A7130C94AD13112492
:102690000C94F2130E94CF1370F3959FC1F3950F22
:1026A00050E0551F629FF001729FBB27F00DB11DD6
:1026B000639FAA27F00DB11DAA1F649F6627B00D66
:1026C000A11D661F829F2227B00DA11D621F739F4F
:1026D000B00DA11D621F839FA00D611D221F749F5D
:1026E0003327A00D611D231F849F600D211D822FA4
:1026F000762F6A2F11249F5750409AF0F1F08823CB
:102700004AF0EE0FFF1FBB1F661F771F881F9150F7
:102710005040A9F79E3F510580F00C94A7130C94EC
:10272000F2135F3FE4F3983ED4F38695779567956F
:10273000B795F795E7959F5FC1F7FE2B880F911D21
:102740009695879597F9089599278827089597F979
:102750009F6780E870E060E008959FEF80EC089547
:1027600000240A9416161706180609060895002470
:102770000A9412161306140605060895092E0394EA
:10278000000C11F4882352F0BB0F40F4BF2B11F45E
:1027900060FF04C06F5F7F4F8F4F9F4F089557FDBD
:1027A0009058440F551F59F05F3F71F04795880FBF
:1027B00097FB991F61F09F3F79F087950895121656
:1027C00013061406551FF2CF4695F1DF08C0161602
:1027D00017061806991FF1CF8695710561050894B3
:1027E0000895E894BB2766277727CB0197F90895CA
:1027F000052E97FB1EF400940E940F1457FD07D07E
:102800000E94611407FC03D04EF40C940F145095F1
:102810004095309521953F4F4F4F5F4F08959095CC
:102820008095709561957F4F8F4F9F4F08950E94BF
:102830008314A59F900DB49F900DA49F800D911DB2
:1028400011240895B7FF0C9417140E941714821BCB
:10285000930B08952F923F924F925F926F927F92C7
:102860008F929F92AF92BF92CF92DF92EF92FF92A0
:102870000F931F93CF93DF93CDB7DEB7CA1BDB0B4C
:102880000FB6F894DEBF0FBECDBF09942A883988F1
:1028900048885F846E847D848C849B84AA84B984F8
:1028A000C884DF80EE80FD800C811B81AA81B98104
:1028B000CE0FD11D0FB6F894DEBF0FBECDBFED0118
:1028C0000895A1E21A2EAA1BBB1BFD010DC0AA1F71
:1028D000BB1FEE1FFF1FA217B307E407F50720F089
:1028E000A21BB30BE40BF50B661F771F881F991F04
:1028F0001A9469F760957095809590959B01AC014D
:10290000BD01CF010895A29FB001B39FC001A39F55
:10291000700D811D1124911DB29F700D811D112418
:10292000911D08955058BB27AA270E94AA140C9401
:10293000BE130E94B01338F00E94B71320F039F490
:102940009F3F19F426F40C94AD130EF4E095E7FBC9
:102950000C94A713E92F0E94CF1358F3BA176207FC
:1029600073078407950720F079F4A6F50C94F1130A
:102970000EF4E0950B2EBA2FA02D0B01B90190019A
:102980000C01CA01A0011124FF27591B99F0593FDE
:1029900050F4503E68F11A16F040A22F232F342F26
:1029A0004427585FF3CF469537952795A795F04074
:1029B0005395C9F77EF41F16BA0B620B730B840B89
:1029C000BAF09150A1F0FF0FBB1F661F771F881F41
:1029D000C2F70EC0BA0F621F731F841F48F4879599
:1029E00077956795B795F7959E3F08F0B0CF93958B
:1029F000880F08F09927EE0F9795879508950E9404
:102A000013150C94BE130E94B71358F00E94B01314
:102A100040F029F45F3F29F00C94A71351110C9456
:102A2000F2130C94AD130E94CF1368F39923B1F302
:102A3000552391F3951B550BBB27AA2762177307E4
:102A4000840738F09F5F5F4F220F331F441FAA1F78
:102A5000A9F335D00E2E3AF0E0E832D09150504034
:102A6000E695001CCAF72BD0FE2F29D0660F771FE2
:102A7000881FBB1F261737074807AB07B0E809F0C8
:102A8000BB0B802DBF01FF2793585F4F3AF09E3F4D
:102A9000510578F00C94A7130C94F2135F3FE4F304
:102AA000983ED4F3869577956795B795F7959F5F90
:102AB000C9F7880F911D9695879597F90895E1E0DC
:102AC000660F771F881FBB1F621773078407BA073B
:102AD00020F0621B730B840BBA0BEE1F88F7E09596
:102AE00008950E9478156894B1110C94F21308951A
:102AF0000E94D71388F09F5798F0B92F9927B751A4
:102B0000B0F0E1F0660F771F881F991F1AF0BA9591
:102B1000C9F714C0B13091F00E94F113B1E00895EB
:102B20000C94F113672F782F8827B85F39F0B93FDD
:102B3000CCF3869577956795B395D9F73EF4909544
:102B40008095709561957F4F8F4F9F4F08950E949C
:102B5000131308F48FEF08950E941313880B990B39
:102B60000895991B79E004C0991F961708F0961BE9
:102B7000881F7A95C9F780950895EE0FFF1F05907D
:102B8000F491E02D09940F931F93CF93DF9382303C
:102B9000910510F482E090E0E0911106F0911206A8
:102BA00020E030E0A0E0B0E0309719F140815181A1
:102BB0000281138148175907C8F08417950769F4F3
:102BC000109731F012960C93129713961C9327C00E
:102BD000009311061093120622C02115310519F039
:102BE0004217530718F49A01BD01EF01DF01F80104
:102BF000DBCF21153105F9F0281B390B24303105C5
:102C000080F48A819B816115710521F0FB0193831A
:102C1000828304C09093120680931106FE013296BF
:102C200044C0FE01E20FF31F8193919322503109BA
:102C3000398328833AC020910F0630911006232B48
:102C400041F420910D0130910E0130931006209334
:102C50000F0620910B0130910C012115310541F433
:102C60002DB73EB740910F0150911001241B350B39
:102C7000E0910F06F0911006E217F307A0F42E1B67
:102C80003F0B2817390778F0AC014E5F5F4F2417D0
:102C9000350748F04E0F5F1F5093100640930F0604
:102CA0008193919302C0E0E0F0E0CF01DF91CF91FA
:102CB0001F910F910895CF93DF93009709F481C07E
:102CC000FC01329713821282A0911106B091120674
:102CD000109781F420813181820F931F20910F067C
:102CE000309110062817390751F5F0931006E0933C
:102CF0000F0667C0ED0120E030E0CE17DF0740F49B
:102D00004A815B819E0141155105F1F0EA01F5CF41
:102D1000D383C28340815181840F951FC817D9077F
:102D200059F488819981840F951F0296918380833D
:102D30008A819B81938382832115310529F4F09345
:102D40001206E09311063DC0E901FB83EA83499135
:102D50005991C40FD51FEC17FD0761F48081918153
:102D6000840F951F0296E90199838883828193815C
:102D70009B838A83E0E0F0E012968D919C911397FB
:102D8000009719F0FD01DC01F7CF8D919C9111970F
:102D90009D012E5F3F4F820F931F20910F063091B0
:102DA00010062817390769F4309729F41092120693
:102DB0001092110602C013821282B0931006A093E3
:102DC0000F06DF91CF910895A0E0B0E0EAEEF6E1C2
:102DD0000C942E14EC01009721F4CB010E94C31532
:102DE000B4C0FC01E60FF71F9C0122503109E21725
:102DF000F30708F4A8C0D9010D911C91119706178B
:102E00001707B0F00530110508F49BC0C8010497FE
:102E10008617970708F495C002501109061B170B77
:102E2000019311936D937C93CF010E945B1689C02F
:102E30005B01A01AB10A4C01800E911EA0911106EF
:102E4000B0911206612C712CE12CF12C109709F431
:102E500046C08D919C911197A815B905B1F56C01EB
:102E600042E0C40ED11CCA14DB0478F14C018A186C
:102E70009B08640142E0C40ED11C1296BC901297CC
:102E80001396AC91B5E0CB16D10440F0B282A38387
:102E900091828082D9016D937C9309C00E5F1F4F90
:102EA000800F911FF90191838083EB2DFA2FE1149C
:102EB000F10431F0D7011396FC93EE93129741C0C1
:102EC000F0931206E09311063CC06816790608F4E8
:102ED0003C017D0112960D90BC91A02DB7CF809141
:102EE0000F069091100688169906E1F4661677068B
:102EF000C8F480910B0190910C01009741F48DB7BB
:102F00009EB740910F0150911001841B950BE8175B
:102F1000F907C8F4F0931006E0930F06F9017183E6
:102F200060830FC0CB010E94C3157C01009759F04C
:102F3000A801BE010E94AF17CE010E945B16C70117
:102F400004C0CE0102C080E090E0CDB7DEB7EEE075
:102F50000C944A1481E090E0F8940C94BF17FB01A4
:102F6000DC0102C001900D9241505040D8F7089505
:102F7000FB01DC0101900D920020E1F7089510E0C3
:102F8000C7E8D0E004C0FE010E94BD152196C838F4
:082F9000D107C9F7F894FFCF47
:102F980000002442030001000016420000130680CE
:102FA80000000000004801B500DF0095011001EEA7
:102FB80000020100000000420215027102E9010D41
:102FC80002F901EA0172685F6C696D6974203D203D
:102FD80000206B747970655F746865726D5F6C69E9
:102FE8006D6974203D20000D0A005475726E696E7B
:102FF80067206F6E20496E63756261746F7200544A
:1030080075726E696E67206F666620496E637562B9
:1030180061746F7200556E737570706F7274656449
:1030280020636F6D6D616E64002D2D2D2D2D2D2D5E
:103038002D2D2D2D2D2D2D2D2D2D2D2D2D2D2D2DB8
:103048002D2D2D2D2D2D2D2D2D2D2D2D2D00496E78
:1030580063756261746F7220636F6D6D616E647306
:103068003A0020303120456E61626C6520636F6CD8
:10307800642066616E002030302044697361626CA0
:103088006520636F6C642066616E002031312045D5
:103098006E61626C6520686F742066616E00203115
:1030A800302044697361626C6520686F74206661C2
:1030B8006E0020323120456E61626C652050656C6F
:1030C80074696572207472616E73647563657200E9
:1030D8002032302044697361626C652050656C74DD
:1030E800696572207472616E73647563657200201D
:1030F800333120456E61626C6520646562756700D6
:103108002033302044697361626C652064656275A0
:10311800670020333278204D6F64696679207465C2
:103128006D7065726174757265206C696D69742063
:10313800627920780020333378204D6F646966798E
:10314800205248206C696D697420627920780020CB
:103158003334205065616B20524820616E642074BE
:10316800656D7065726174757265206C696D6974DE
:103178000020343120456E61626C6520696E63758C
:103188006261746F72002034302044697361626C2C
:103198006520696E63756261746F72002035302036
:1031A80044657461636820726F746174696F6E201E
:1031B800736572766F0020353120417474616368DD
:1031C80020726F746174696F6E20736572766F0018
:1031D80020353220526F746174696F6E2073657286
:1031E800766F2061742033206465677265657300AB
:1031F80020353320526F746174696F6E2073657265
:10320800766F206174203138302064656772656597
:1032180073002035347820526F746174696F6E20A2
:10322800736572766F2061742078206465677265B3
:103238006573002035352044697361626C652072BE
:103248006F746174696F6E730020353620456E6146
:10325800626C6520726F746174696F6E73002036DA
:103268002047657420696E63756261746F7220739C
:10327800746174757320646174610053686F72744B
:1032880020737472696E67206C656E67746800736A
:10329800657269616C4576656E7400436F756C6420
:1032A8006E27742066696E6420485455323144464E
:1032B8002073656E736F72210020495420432020CB
:1032C800524820252020204B542043202020416DA7
:1032D8002043002020006E616E00696E66006F76E4
:0232E80066007E
:00000001FF
